:020000020000FC
:100000000C941D0003B108B90C94020045E545B9F4
:10001000409545B90C94080044E04A954A954A95A4
:100020004A95FFCF08E31FE2010F011710F40AEA17
:1000300026E6021F0217D8F7FFCF4CE940930001D4
:1000400054E650930101450FFFCF48E853E9450FAF
:10005000FFCF05E214E321E3010F020F1BE0010FC4
:10006000009300030C9432003AEA43E05BE0341B57
:10007000351B4BE0341B309301030C943D0005E02D
:100080001EE0019F0C94420002E11AE020E130E101
:10009000011711F4321711F00217E0F7311700F0D1
:1000A0000C9450001FEF14B90E94EC00289A299A72
:1000B0002A9A2B9A2C9A2D9A2E9A0E94EC00289A12
:1000C00029982A982B9A2C9A2D9A2E9A0E94EC0005
:1000D000289829982A9A2B982C982D9A2E980E9425
:1000E000EC00289829982A982B982C9A2D9A2E98CB
:1000F0000E94EC00289A29982A982B9A2C9A2D98DD
:100100002E980E94EC002898299A2A982B982C9ACD
:100110002D982E980E94EC002898299A2A982B98BE
:100120002C982D982E980E94EC00289829982A98AF
:100130002B9A2C9A2D9A2E9A0E94EC002898299896
:100140002A982B982C982D982E980E94EC0028988D
:1001500029982A982B982C9A2D982E980E94EC007A
:10016000289829982A982B9A2C982D982E980E9496
:10017000EC00289829982A982B982C982D982E983E
:100180000E94EC002898299A2A9A2B982C982D984E
:100190002E9A0E94EC00289829982A982B982C983F
:1001A0002D982E9A0E94EC002898299A2A9A2B982A
:1001B0002C982D982E980E94EC002898299A2A9A1B
:1001C0002B9A2C982D982E986FCF12E428EC2A9514
:1001D000F1F71A95D9F708953AE00E94E5003A95AB
:0401E000E1F70895A6
:00000001FF
